:020000040800F2
:100000000848002011380008B9370008BB3700083D
:10001000BD370008BF370008C137000800000000E6
:100020000000000000000000000000007D1000083B
:10003000C33700080000000025100008150E000856
:100040009138000895380008993800089D38000854
:10005000A1380008A5380008A9380008AD38000804
:10006000B1380008B5380008B9380008BD380008B4
:10007000C1380008C5380008C9380008CD38000864
:10008000D1380008D5380008D9380008DD38000814
:10009000E1380008E5380008E9380008ED380008C4
:1000A000F1380008C5370008F5380008F9380008AD
:1000B000FD38000801390008053900080939000831
:1000C0000D390008113900081539000819390008E0
:1000D0001D39000821390008253900082939000890
:1000E0002D39000831390008353900083939000840
:1000F0003D390008413900084539000849390008F0
:100100004D3900085139000855390008593900089F
:100110005D3900086139000865390008693900084F
:100120006D390008713900087539000879390008FF
:100130007D390008813900088539000889390008AF
:100140008D3900089139000895390008993900085F
:100150009D390008A1390008A5390008A93900080F
:10016000AD390008B1390008B5390008B9390008BF
:10017000BD390008C1390008C53900080000000079
:10018000C9390008CD39000878B585B005000B984D
:10019000002807D1502080F31188BFF34F8FBFF3A1
:1001A0006F8FFEE70C9C002C07D1502080F3118844
:1001B000BFF34F8FBFF36F8FFEE754260096009E6C
:1001C000542E07D0502080F31188BFF34F8FBFF318
:1001D0006F8FFEE7009E002C13D0002811D0206303
:1001E000022084F8510000200390029404A801909A
:1001F0000A980090280000F042F8200000F09AF8D9
:1002000001E000200490049806B070BD2DE9F84389
:1002100084B00700884616009946300080B28000FE
:1002200000F0B0FB0500002D0BD0542000F0AAFB1D
:100230000400002C01D0256304E0280000F030FC0D
:1002400000E00024002C15D0002084F8510000208C
:10025000039002940D9801900C9800904B46B6B212
:1002600032004146380000F00AF8200000F062F841
:10027000012001E05FF0FF3005B0BDE8F0832DE91B
:10028000F84305001E000A9F386B00EB8200B0F1B6
:1002900004085FEAD8085FEAC80818F007000028D9
:1002A00007D0502080F31188BFF34F8FBFF36F8FBB
:1002B000FEE7002910D0002200E0521C102A07D2CD
:1002C000885C07EB020383F83400885C0028F4D1D3
:1002D000002087F8430002E0002087F83400DDF8B2
:1002E0002090B9F1070F01D35FF00609099CC7F808
:1002F0002C90C7F844900020B864381D00F08DFCA5
:1003000017F1180000F089FC3F61D9F10709C7F81F
:1003100018907F620020F864002087F850003200B7
:100320002900404600F0B6FC3860002C00D0276061
:10033000BDE8F18338B5040000F03CFDDFF834146B
:100340000868401C0860DFF830542868002806D18F
:100350002C60086801280DD100F02AFA0AE0DFF8C5
:100360001C040068002805D1E06A2968C96A88422F
:1003700000D32C60DFF808040168491C0160DFF835
:1003800004140A680123E06A83401A430A60211DAD
:10039000DFF81824E36A1420434302EB030000F063
:1003A0003FFC00F021FDDFF8D403006800280DD0E9
:1003B0002868C06AE16A884208D25FF08050DFF89E
:1003C000F4140860BFF34F8FBFF36F8F31BD10B5CA
:1003D00004000020002C14D0DFF868040068002816
:1003E00007D0502080F31188BFF34F8FBFF36F8F7A
:1003F000FEE700F059F80021200000F075FA00F047
:1004000059F8002808D15FF08050DFF8A814086080
:10041000BFF34F8FBFF36F8F10BD10B586B00020B4
:1004200004900020039005AA03A904A800F01AFD77
:10043000DFF8904404980290039801900020009007
:100440000023059ADFF880140FF23D30FFF79CFE81
:1004500020602068002801D0012000E00020012851
:1004600017D1502080F31188BFF34F8FBFF36F8FE8
:100470005FF0FF30DFF8541408600120DFF8FC1251
:1004800008600020DFF84C14086000F02CFC06B077
:1004900010BD10F1010FFAD1502080F31188BFF385
:1004A0004F8FBFF36F8FFEE7DFF898030168491C99
:1004B0000160704770B500240025DFF8886330685C
:1004C000002807D1502080F31188BFF34F8FBFF36E
:1004D0006F8FFEE700F06EFC3068401E30603068C1
:1004E000002855D1DFF88C020068002826D14FE0A3
:1004F000C868C46814F1180000F0B9FB201D00F0B2
:10050000B6FBDFF880120A680123E06A83401A43D1
:100510000A60211DDFF89422E36A1420434302EBB2
:10052000030000F07DFBE06ADFF84C120968C96A3D
:10053000884203D30120DFF898130860DFF88013A6
:1005400008680028D4D1002C01D000F09EF9DFF813
:1005500094633468002C0CD000F01EF8002803D0FF
:100560000120DFF86C130860641E002CF4D1002019
:100570003060DFF85C030068002809D001255FF0D7
:100580008050DFF830130860BFF34F8FBFF36F8FD9
:1005900000F02AFC280070BDF8B50025DFF8A402A1
:1005A000006800286BD1DFF82C030468641C046029
:1005B000002C1AD1DFF8201308680068002807D043
:1005C000502080F31188BFF34F8FBFF36F8FFEE78A
:1005D0000868DFF8082313680B601060DFF8000379
:1005E0000168491C016000F050F9DFF8E0623068F2
:1005F000844233D327E00868C068C76878688442BB
:100600002BD3381D00F033FBB86A002803D017F154
:10061000180000F02CFB5B490A680123F86A83404C
:100620001A430A60391DDFF88421FB6A1420434312
:1006300002EB030000F0F4FAF86A4F490968C96A4E
:10064000884200D30125DFF890120868006800286E
:10065000D1D15FF0FF30306000E030604648006884
:100660005249C26A142042438858022800D3012507
:10067000DFF85C020068002806D0012504E0DFF8FE
:1006800064020168491C01602800F2BDDFF8B40172
:100690000068002804D00120DFF8341208602AE046
:1006A0000020DFF82C12086036480068B0FA80F1AC
:1006B000D1F11F0114223D4B02FB01F01858002814
:1006C00007D1502080F31188BFF34F8FBFF36F8F96
:1006D000FEE7514303EB010041684968416041680E
:1006E00010F10802914202D14168496841604068B6
:1006F000C06821490860704710B5C068C468002C04
:1007000007D1502080F31188BFF34F8FBFF36F8F55
:10071000FEE714F1180000F0AAFA4A480068002821
:1007200013D1201D00F0A3FA16490A680123E06ADC
:1007300083401A430A60211D1C4AE36A1420434384
:1007400002EB030000F06CFA05E014F11801DFF889
:10075000700100F065FA08480068C06AE16A8842E2
:1007600005D201200121DFF86821116000E000209E
:1007700010BD0000D4430020C4430020E04300200B
:10078000F0430020DC43002080B500F03AF8074831
:1007900000680228F9D35FF08050DFF8201108606C
:1007A000BFF34F8FBFF36F8FEFE7000014410020BE
:1007B00038B5002408E0DFF8A801142101FB04F19A
:1007C000084400F01BFA641C072CF4D3DFF89441B2
:1007D000200000F013FADFF89051280000F00EFA24
:1007E000DFF8DC0000F00AFA144800F007FA32489B
:1007F00000F004FADFF8E0000460DFF87001056043
:1008000031BD38B514E000F0D5FA0C48C068C468B2
:10081000201D00F02CFADFF858010168491E016024
:100820002868401E286000F0DFFA200000F00CF875
:10083000034D28680028E6D131BD00005C4300204C
:10084000D0430020FC43002010B5040094F8510070
:10085000002806D1206B00F023F9200000F020F9D9
:1008600010BD94F85100012803D1200000F018F9C0
:10087000F6E794F851000228F2D0502080F3118856
:10088000BFF34F8FBFF36F8FFEE7DFF84C100868A0
:100890000068002805D15FF0FF30DFF830100860F5
:1008A00006E00868C068C0684068DFF8201008608B
:1008B0007047000004ED00E07043002004ED00E00C
:1008C00048430020F843002084380008F443002007
:1008D000E8430020D8430020C8430020CC43002038
:1008E000EC430020E4430020F8B505000C001B4851
:1008F0000668194F3868001D00F0B9F9002807D1C3
:1009000038681C490A680123C06A83409A430A6018
:1009100015F1010F07D1002C05D03868011D1648CC
:1009200000F07EF916E0AD1938684560B54206D290
:100930003868011D0D48006800F07EF90AE038684B
:10094000011D0E48006800F077F90D4801688D42DE
:1009500000D20560F1BD0000C4430020D843002050
:10096000144100202043002034430020CC430020C9
:10097000D4430020DC43002070430020C843002003
:10098000F44300202DE9F84304000025FFF78CFD17
:10099000DFF84492D9F80000002801D100F0BDF83A
:1009A0008E4F386804426AD1002C15D08C480068FC
:1009B000041914F0070F0FD014F1080014F0070405
:1009C000041B14F0070F07D0502080F31188BFF3E9
:1009D0004F8FBFF36F8FFEE7002C50D0DFF80482FB
:1009E000D8F80000A0424AD37F480100066801E021
:1009F000310036687068A04202D230680028F7D112
:100A0000D9F8000086423AD075480A68036802EBBC
:100A1000030532680A60006840007168091B88425B
:100A200014D206EB040111F00700002807D0502073
:100A300080F31188BFF34F8FBFF36F8FFEE77068AD
:100A4000001B48607460080000F096F8D8F80010A9
:100A50007068091AC8F800106448D8F800100268D5
:100A6000914202D2D8F800100160716838680143E1
:100A70007160002030605E480168491C0160FFF72A
:100A800019FD15F00700002807D0502080F31188C9
:100A9000BFF34F8FBFF36F8FFEE72800BDE8F283EF
:100AA00010B50100002837D04D480068404201EBE6
:100AB00000044A4960680A68104207D1502080F358
:100AC0001188BFF34F8FBFF36F8FFEE720680028B8
:100AD00007D0502080F31188BFF34F8FBFF36F8F83
:100AE000FEE760680A68104216D02068002813D11B
:100AF0006268086882436260FFF7D6FC39490A6879
:100B0000606882180A60200000F036F839480168F1
:100B1000491C0160FFF7CEFC10BD10B44FF47052B9
:100B20003548010011F0070F04D0C91DC908C900DC
:100B3000521A82182C48016000234360521828483A
:100B40000068121AD208D200234802600023046809
:100B50006360002304682360521A4A6000680860DA
:100B60004868224A106048681E4908605FF00040EB
:100B70001A49086010BC704710B41B4A00E01268A4
:100B800011688142FBD3110053681944814204D19A
:100B900051684068411851601000010043681944D1
:100BA0001368994210D10C4913680C68A34208D00D
:100BB000436811684968CB1843601168096801608F
:100BC00004E00968016001E011680160824200D020
:100BD000106010BC70470000A4430020B843002000
:100BE0008C380008A843002084430020AC43002038
:100BF000B0430020B44300201000002010F1080191
:100C000041605FF0FF31816010F10801C16010F1B7
:100C100008010161002101607047002101617047F6
:100C200042684A6093688B6093685960916008617C
:100C30000168491C0160704710B40B6813F1010F83
:100C400001D1026907E010F1080200E0526854681F
:100C50002468A342FAD253684B604B6899608A605B
:100C6000516008610168491C016010BC704701694E
:100C7000826843689A60426883685A604A68824220
:100C800001D182684A60002202610868401E086043
:100C900008687047001F5FF080730360001F4908F9
:100CA00049000160001F0FF2150101601438026055
:100CB000001F7FF002010160203870475F48006824
:100CC00010F1010F07D0502080F31188BFF34F8F30
:100CD000BFF36F8FFEE7502080F31188BFF34F8F73
:100CE000BFF36F8FFEE7E0B555480168554A914262
:100CF00007D1502080F31188BFF34F8FBFF36F8F60
:100D0000FEE700685049884207D1502080F31188DF
:100D1000BFF34F8FBFF36F8FFEE74C48017801910F
:100D2000FF21017001788DF800109DF8001011F07E
:100D30005001474A1170474907220A6007E00A68D4
:100D4000521E0A609DF8002052008DF800209DF888
:100D500000201206F3D40A68D2F10702042A07D051
:100D6000502080F31188BFF34F8FBFF36F8FFEE7E2
:100D70000A6812020A600A6812F4E0620A600199C5
:100D800001703548016851F470010160016851F04B
:100D90007041016000F02CF900202849086000F043
:100DA0008BF92E48016851F04041016000F074F960
:100DB00000200EBD502080F31188BFF34F8FBFF38A
:100DC0006F8F1E490A68521C0A60096801290AD1FE
:100DD00023490968090606D080F31188BFF34F8FB5
:100DE000BFF36F8FFEE7704714490868002807D1EA
:100DF000502080F31188BFF34F8FBFF36F8FFEE752
:100E00000868401E08600868002802D1002080F3AE
:100E10001188704780B5502080F31188BFF34F8F41
:100E2000BFF36F8FFFF7B8FB002803D05FF080504F
:100E30000B490860002080F3118801BD00000020EC
:100E400000ED00E071C20F4170C20F4100E400E00C
:100E500002440020BC43002020ED00E034EF00E01D
:100E600004ED00E0504B03605048086080201060A3
:100E7000704700B5A7B000204D49087000204D49CB
:100E8000087068464C49102200F024F90021684699
:100E900000F0C2F94949086020A849491C2200F025
:100EA00019F9002120A800F07DF94649086019A829
:100EB00045491C2200F00EF9002119A800F072F932
:100EC0004249086012A842491C2200F003F900219F
:100ED00012A800F067F93F4908600BA83E491C22A0
:100EE00000F0F8F800210BA800F05CF93B4908601D
:100EF00004A83B491C2200F0EDF8002104A800F0F2
:100F000051F93849086027B000BD80B5012000F0D4
:100F100078F9FBE780B503E000202549087008E078
:100F20001021314800F079FA0028F5D0012020493D
:100F30000870C82000F065F9F2E710B50DE00878F8
:100F4000002818D11B4C2078002814D08021274875
:100F500000F076FA002020700DE01549087800288E
:100F6000EDD0144C20780028E9D180211F4800F0F2
:100F700067FA01202070C82000F043F9EDE780B542
:100F80004FF48071194800F05BFA642000F039F9E1
:100F9000F6E780B54FF40071144800F051FA4FF4B1
:100FA000966000F02EF9F5E7F8410020143F00208C
:100FB0000044002001440020F0370008A043002036
:100FC0002C3700089C430020483700089843002035
:100FD000643700088C4300208037000890430020CD
:100FE0009C37000894430020000802400010024093
:100FF0000848002101600021074A1160074909687B
:101000004FF47A72B1FBF2F1491E054A11600721D3
:101010000160704710E000E018E000E008000020E8
:1010200014E000E0EFF30980BFF36F8F264B1A68DE
:101030001EF0100F08BF20ED108A20E9F04F10605D
:1010400009B44FF0500080F31188BFF34F8FBFF306
:101050006F8FFFF71BFB4FF0000080F3118809BC76
:1010600019680868B0E8F04F1EF0100F08BFB0EC28
:10107000108A80F30988BFF36F8F7047124B19688D
:101080000868B0E8F04F80F30988BFF36F8F4FF026
:10109000000080F3118870470C480068006880F3F6
:1010A00008884FF0000080F3148862B661B6BFF381
:1010B0004F8FBFF36F8F00DFDFF81400016841F43A
:1010C0007001016070470000C443002008ED00E09B
:1010D00088ED00E0103A07D330B4B1E83810103A88
:1010E000A0E83810F9D230BC530724BFB1E808108B
:1010F000A0E8081044BF51F8043B40F8043BD20775
:1011000024BF31F8022B20F8022B44BF0B78037068
:101110007047121F17D35B0009D151F8043B20F828
:10112000023B1B0C121F20F8023BF6D20BE051F8D9
:10113000043B00F8013B1B0A20F8023B1B0C121F6A
:1011400000F8013BF3D238BF121D521E24BF11F824
:10115000013B00F8013BF8D870470EE00268436895
:10116000024408305FEAC37C44BF4B445B1E52F824
:1011700004CB43F804CB091FF9D150F8041B002914
:10118000ECD17047010000200A0012B2842A03D07B
:1011900009B2C91C09180800704780B5FFF73DF96E
:1011A000002002BD38B584B004000D00606900283D
:1011B00015D0A069002812D0B4F90800FFF7E2FFAB
:1011C000A16902916169019100902B002269216857
:1011D0006068FEF7D9FF0390039805B030BDB4F9FD
:1011E0000800FFF7CFFF03A9019100902B002269AF
:1011F00092B221686068FFF709F80128ECD000205E
:10120000EBE780B50121B0FBF1F0002800D101200F
:10121000FFF7DDF8002002BD80B5816800290BD002
:10122000C168002908D000210091C3688268416824
:10123000006800F074F904E000224168006800F0E2
:10124000C2F902BDF8B4002200220022002337E0D8
:10125000082704E0DFF8FC219042F9D10727FFB20C
:1012600013F00302D2B2920097403E431A00920854
:1012700045F82260DFF8E0512A68A2434E68F60282
:1012800000D522432A60DFF8D4512A68A2434E6871
:10129000B60200D522432A60DFF8C4512A68A2436F
:1012A0004E68B60300D522432A60DFF8B8512A6899
:1012B000A2434E68F60301D5144322002A605B1C4A
:1012C000102B80F0A880012515FA03F20C68144059
:1012D0009442F4D10A7912F00302012A04D00A7967
:1012E00012F00302022A16D1866803271A00D2B22E
:1012F00052009740BE43CF681A00D2B252009740C6
:101300003E43866042689D40AA434D68C5F3001580
:101310009D402A4342600A7912F00302032A0DD04D
:10132000C56803261A00D2B252009640B5438E68B3
:101330001A00D2B2520096403543C5600A7912F0C5
:101340000302022A17D11A00D20800EB8202156AA2
:101350000F2613F00702D2B292009640B5430E69F1
:1013600013F00702D2B29200964035431A00D20819
:1013700000EB82021562056803261A00D2B2520001
:101380009640B5430E7916F003061A00D2B2520009
:101390009640354305604A6812F4403F8FD00022E2
:1013A0000092314A156855F480451560126812F4B0
:1013B00080420092009A2D4D1A00920855F8226042
:1013C0000F2713F00302D2B292009740BE43284A7F
:1013D000904201D1002742E7264A904201D10127DD
:1013E0003DE7254A904201D1022738E7234A90423F
:1013F00001D1032733E7224A904201D104272EE787
:10140000204A904201D1052729E71F4A90427FF4E4
:1014100021AF062723E7F1BC7047006989B2084273
:1014200001D0012000E00020C0B27047D2B2002AF3
:1014300002D089B2816102E089B2090481617047FA
:1014400042690B009BB2134089B2914351EA0341B8
:1014500081617047001C0240083C01400C3C014087
:10146000043C0140003C014044380240083801403F
:10147000000002400004024000080240000C02404C
:1014800000100240001402400018024038B5040069
:101490000D00002C07D1502080F31188BFF34F8F2F
:1014A000BFF36F8FFEE7FFF785FC2168E26B206CCE
:1014B000424301EB0200A0600020A063206860604E
:1014C0002168E26B521E206C424301EB0200E06097
:1014D0005FF0FF3084F8440084F84500002D12D1FD
:1014E0002069002817D014F11000FFF705F9002833
:1014F00011D05FF08050DFF834110860BFF34F8FD8
:10150000BFF36F8F07E014F11000FFF777FB14F1C2
:101510002400FFF773FBFFF767FC012032BD38B5ED
:101520001C00002807D1502080F31188BFF34F8F93
:10153000BFF36F8FFEE7002C07D1502080F3118896
:10154000BFF34F8FBFF36F8FFEE7002A01D0002952
:1015500001D0012300E00023DBB2002B07D1502093
:1015600080F31188BFF34F8FBFF36F8FFEE7002A20
:1015700001D1002901D1012300E00023DBB2002BBF
:1015800007D1502080F31188BFF34F8FBFF36F8FC7
:10159000FEE748230093009B482B07D0502080F3A0
:1015A0001188BFF34F8FBFF36F8FFEE7009B002CB6
:1015B00007D0049B012584F846500094DBB200F06C
:1015C00027F8200032BDF8B505000E001700002DE9
:1015D00007D1502080F31188BFF34F8FBFF36F8F77
:1015E000FEE706FB05F04830FFF7CCF90400002CBD
:1015F0000CD0200010F14802002084F8460000942E
:101600003B00DBB23100280000F002F82000F2BD00
:1016100080B5029B002901D11B6000E01A60D863ED
:10162000196401211800FFF731FF01BD04ED00E04E
:101630002DE9FC410400002C01D10120C4E12078F7
:10164000C0075FD5DFF88403016811F00C0104299D
:1016500009D0006810F00C0008280ED1DFF87003E4
:101660000068400209D5DFF86C030068800349D5A3
:101670006068002846D10120A6E16068B0F5803F8F
:1016800006D1DFF85003016851F48031016018E0A1
:101690006068B0F5A02F0AD1DFF83803016851F473
:1016A00080210160016851F48031016009E0DFF8B8
:1016B0002403016831F480310160016831F4802134
:1016C0000160606800280ED000F094F90500DFF892
:1016D00004030068800315D400F08CF9401B6528D2
:1016E000F5D3032070E100F085F90500DFF8E4028E
:1016F0000068800306D500F07DF9401B6528F5D30E
:10170000032061E1207880071DD5B048016811F001
:101710000C0F08D0006810F00C0008282AD1AC4843
:101720000068400226D4AB480168890704D5E16807
:10173000012901D0012047E1016831F0F801226957
:1017400051EAC20101602078000751D56069002884
:101750003DD00120A049086000F04CF905009F48E9
:101760000068800744D400F045F9401B0328F6D3F5
:10177000032029E1E068002818D00120984908607A
:1017800000F038F9050093480168890706D400F095
:1017900031F9401B0328F6D3032015E1016831F02D
:1017A000F801226951EAC2010160CCE700208C49AE
:1017B000086000F01FF90500864800688007C2D560
:1017C00000F018F9401B0328F6D30320FCE00020AA
:1017D0008149086000F00EF9050080480068800724
:1017E00006D500F007F9401B0328F6D30320EBE0F1
:1017F000207840076FD500267A4D2868C0000BD4AA
:1018000000200090286850F080502860286810F070
:101810008050009000980126734F3868C00511D49D
:10182000386850F48070386000F0E4F8804638681A
:10183000C00507D400F0DEF8B0EB08000328F6D3AB
:101840000320C1E0A068012805D16848016851F073
:101850000101016015E0A068052809D1634801680D
:1018600051F004010160016851F00101016008E0DC
:101870005E480168490849000160016831F00401CF
:101880000160A06800280FD000F0B4F807005748A6
:101890000068800718D400F0ADF8C01B41F2893110
:1018A0008842F4D303208FE000F0A4F807004F48EB
:1018B0000068800708D500F09DF8C01B41F289310F
:1018C0008842F4D303207FE0F6B2012E03D12868CA
:1018D00030F080502860A069002874D03B48006830
:1018E00010F00C00082843D0A06902282FD1404EE8
:1018F0000020306000F07EF80700364D2868800137
:1019000006D500F077F8C01B0328F6D303205BE070
:10191000E169206A0143606A51EA8011A06A4008C7
:10192000401E51EA0041E06A51EA00612848016026
:101930000120306000F05EF804002868800142D485
:1019400000F058F8001B0328F7D303203CE00020E8
:101950002749086000F04EF804001E480068800126
:1019600031D500F047F8001B0328F6D303202BE005
:10197000A069012801D1012026E015480068A1696D
:1019800001291ED010F48001E269914219D110F0B2
:101990003F01226A914214D147F6C0710140626A48
:1019A000B1EB821F0DD110F44031A26A5208521ED1
:1019B000B1EB024F05D110F07060E16AB0EB016F3E
:1019C00001D0012000E00020BDE8F6810838024087
:1019D0000438024000380240800E4742743802400A
:1019E000000047424038024000700040703802401A
:1019F0006000474201480068704700BFC0430020B4
:101A000010B50400002C01D101202FE094F83D0016
:101A1000002805D1002084F83C00200000F0B0F937
:101A2000022084F83D00211D206800F034F90120D7
:101A300084F84600012084F83E00012084F83F002D
:101A4000012084F84000012084F84100012084F83E
:101A50004200012084F84300012084F84400012062
:101A600084F84500012084F83D00002010BD90F866
:101A70003D10012901D0012043E0022180F83D10F2
:101A80000168C96851F001010268D1600168DFF89E
:101A90007420914221D00168B1F1804F1DD00168BE
:101AA000DFF86420914218D00168DFF8602091428D
:101AB00013D00168DFF8582091420ED00168DFF89A
:101AC0005420914209D00168DFF84C20914204D0A3
:101AD0000168DFF8482091420CD10168896811F053
:101AE000070106290CD00168096851F0010100685E
:101AF000016005E00168096851F0010100680160BA
:101B00000020704700000140000400400008004031
:101B1000000C00400004014000400140001800405B
:101B200010B504002068006980071AD52068C068D5
:101B3000800716D57FF00200216808610120207718
:101B40002068806910F0030F03D0200000F019F91D
:101B500005E0200000F016F9200000F014F9002044
:101B600020772068006940071AD52068C0684007C0
:101B700016D57FF0040021680861022020772068D4
:101B8000806910F4407F03D0200000F0FAF805E0EF
:101B9000200000F0F7F8200000F0F5F80020207792
:101BA0002068006900071AD52068C068000716D5AC
:101BB0007FF0080021680861042020772068C06950
:101BC00010F0030F03D0200000F0DBF805E0200048
:101BD00000F0D8F8200000F0D6F800202077206828
:101BE0000069C0061AD52068C068C00616D57FF007
:101BF000100021680861082020772068C06910F46F
:101C0000407F03D0200000F0BCF805E0200000F089
:101C1000B9F8200000F0B7F80020207720680069AC
:101C2000C0070AD52068C068C00706D57FF001004C
:101C300021680861200000F00FF9206800690006A3
:101C40000AD52068C068000606D57FF080002168AC
:101C50000861200000F010F92068006940060AD5EC
:101C60002068C068400606D57FF040002168086102
:101C7000200000F002F92068006980060AD520687B
:101C8000C068800606D57FF020002168086120002A
:101C900000F0F4F810BD10B40468DFF8B8309842D2
:101CA00012D0B0F1804F0FD0DFF8AC2090420BD0B3
:101CB000DFF8A820904207D0DFF8A420904203D09C
:101CC000DFF8A020904203D134F070044A68144336
:101CD000984227D0B0F1804F24D0DFF87C2090428A
:101CE00020D0DFF8782090421CD0DFF8742090429A
:101CF00018D0DFF87020904214D0DFF86C209042AA
:101D000010D0DFF8682090420CD0DFF864209042B9
:101D100008D0184A904205D0174A904202D0174A7C
:101D2000904203D134F44074CA68144334F0800400
:101D30004A69144304608A68C2620A6882629842EF
:101D400002D0084A904201D1096901630121416131
:101D500010BC704700000140000400400008004033
:101D6000000C0040000401400040014000440140DC
:101D70000048014000180040001C004000200040C6
:101D8000704770477047704780B500F079F800F0F1
:101D90000FF800F08FF800F0B7F900F017FA00F034
:101DA00089FA00F0FDFAFFF764F8FFF7F6F9FEE7AD
:101DB00080B592B03022002106A800F04BFB14221F
:101DC000002101A800F046FB002000902648016891
:101DD00051F080510160006810F080500090009830
:101DE000002000902148016851F4804101600068A2
:101DF00010F4804000900098012006905FF480303D
:101E0000079002200C905FF480000D9008200E9047
:101E10004FF4A8700F90022010900720119006A890
:101E2000FFF706FC002801D000F024F80F200190F5
:101E300002200290002003904FF4A05004904FF431
:101E400080500590052101A800F00EFB002801D06C
:101E500000F010F813B000BD80B500680449884256
:101E600001D100F0DFFB01BD4038024000700040AE
:101E70000000014072B6FEE77047704770470000EF
:101E800080B50B48016851F400710160016851F49C
:101E900080610160016851F480710160032000F0ED
:101EA0001DFC0F2000F03EFC00F07EFC002002BD77
:101EB000003C02402DE9F84386B014220021684618
:101EC00000F0C8FA002005908948016851F010011F
:101ED0000160016811F0100105910599002105913B
:101EE000016851F004010160016811F004010591DD
:101EF000059900210591016851F080010160016898
:101F000011F080010591059900210591016851F0BA
:101F100001010160016811F001010591059900219D
:101F20000591016851F002010160016811F00201A0
:101F30000591059900210591016851F008010160A2
:101F4000006810F00800059005986A4C00224FF4D4
:101F500062712000FFF76AFA674D01220121280013
:101F6000FFF764FA4FF21006644F00223100380088
:101F7000FFF75CFA4FF4627000900120019000209E
:101F800002900020039069462000FFF75BF90120D2
:101F900000900120019000200290002003906946EB
:101FA0002800FFF74FF90820009002200190002040
:101FB0000290002003900520049069462800FFF756
:101FC00041F9012000905FF49018CDF804800020C2
:101FD0000290DFF82C9169464846FFF733F910204C
:101FE0000090022001900020029000200390062023
:101FF000049069464846FFF725F91020009000201C
:1020000001900020029069462800FFF71BF9042088
:1020100000900020019000200290DFF8E8906946CF
:102020004846FFF70FF94FF4006000905FF4881006
:1020300001900020029069462000FFF703F94FF459
:102040008060009002200190002002900020039008
:102050000520049069464846FFF7F4F800960120F1
:102060000190002002900020039069463800FFF79D
:10207000E9F84FF4A4500090022001900020029053
:10208000002003900620049069462800FFF7DAF844
:102090002020009000200190002002906946380026
:1020A000FFF7D0F84FF4107000901220019001203B
:1020B0000290002003900420049069464846FFF7F0
:1020C000C1F8802000900020019001200290694614
:1020D0004846FFF7B7F802200090CDF804800020B2
:1020E000029069462000FFF7ADF807B0BDE8F08325
:1020F000303802400010024000080240000C02404C
:10210000000002400004024080B52B482B490160CA
:102110004FF482714160002181600021C160002183
:102120000161002141614FF4007181610021C161B1
:102130000021016200214162002181620A21C16205
:1021400000F056FB002801D0FFF794FE01BD10B54A
:1021500086B004001422002101A800F07BF9206859
:102160001649884225D1002000901548016851F495
:1021700080510160006810F48050009000980020A9
:1021800000901048016851F001010160006810F0F2
:10219000010000900098E0200190022002900020B1
:1021A0000390002004900520059001A90648FFF740
:1021B00049F806B010BD0000A041002000300140E9
:1021C0004438024030380240000002401FB510225F
:1021D0000021684600F03EF9314C324820605FF43F
:1021E000803060600020A060002020610020207608
:1021F000002084F820005FF08050E0625FF07060A3
:10220000A0620020E0600120E061002084F830003E
:1022100001206061200000F053FB002801D0FFF78F
:1022200029FE0120009001200190002002906946C3
:10223000200000F076FB002801D0FFF71BFE1FBD39
:1022400010B586B004001422002101A800F002F9A4
:1022500020681449884221D100200090124801686A
:1022600051F480710160006810F480700090009853
:10227000002000900D48016851F0010101600068E4
:1022800010F00100009000980220019003200290BD
:102290000020039001A90648FEF7D4FF06B010BD48
:1022A0004C420020002001404438024030380240B7
:1022B0000000024080B535485FF0A0410160082170
:1022C00081600121C1600021016102218161002141
:1022D000C16100F09DFC002801D0FFF7CBFD01BDDE
:1022E00010B586B0040014220021684600F0B2F850
:1022F0002068B0F1A04F46D1002005902448016825
:1023000051F001010160006810F00100059005988E
:102310004FF40070009000200190002002901D4CAE
:1023200069462000FEF78EFF4FF480600090022087
:10233000019000200290032003900A200490694637
:102340002000FEF77FFF4FF4C05000900220019064
:1023500000200290002003900A200490694620008B
:10236000FEF770FF0C48016851F080010160002009
:1023700005900A48016851F480410160006810F43A
:1023800080400590059806B010BD0000103C00206C
:1023900030380240000002403438024044380240E5
:1023A00080B52748274901605FF4E13141604FF46F
:1023B000805181600021C1604FF4C06101610C2136
:1023C0004161002181610021C16100F05DFC0028B4
:1023D00001D0FFF74FFD01BD10B586B004001422F7
:1023E000002101A800F036F820681649884225D15E
:1023F000002000901448016851F400310160006829
:1024000010F4003000900098002000900F48016800
:1024100051F001010160006810F001000090009887
:102420000C200190022002900020039003200490D1
:102430000720059001A90648FEF704FF06B010BD6D
:10244000DC42002000440040403802403038024066
:102450000000024010B5044610460A4601462046D8
:1024600000F0C8FD204610BD2DE9F04104000E002B
:10247000002C01D1012092E0634D286810F0070084
:10248000B04207D22E70286810F00700B04201D089
:10249000012084E02078800716D52078400704D5F5
:1024A0005A48016851F4E05101602078000704D5D2
:1024B0005648016851F46041016054490A6832F09D
:1024C000F002A06802430A602078C00735D5606832
:1024D000012805D14E480068800313D401205EE036
:1024E0006068022802D06068032805D14848006867
:1024F000800107D4012052E045480068800701D4DC
:1025000001204CE0414F3968890889006068014327
:102510003960FFF76FFA8046386810F00C00616888
:10252000B0EB810F09D0FFF765FAB0EB080041F27C
:1025300089318842F0D3032031E0286810F0070089
:10254000864207D22E70286810F00700B04201D0F2
:10255000012024E02078400706D52C490A6832F48F
:10256000E052E06802430A602078000707D5274858
:10257000016831F46041226951EAC201016000F052
:102580006DFD2449214A1268C2F30312895CC840D8
:10259000214908602148006800F0C4F80020BDE827
:1025A000F0811D480068704780B5FFF7FAFF1C49AD
:1025B000164A1268C2F38222895CC84002BD80B507
:1025C000FFF7EFFF1649114A1268C2F34232895CE5
:1025D000C84002BD0F2202600C4A136813F00303C7
:1025E0004360136813F0F0038360136813F4E0533F
:1025F000C3601268D20812F4E05202610248006817
:1026000010F0070008607047003C024008380240A4
:1026100000380240003800080800002004000020B4
:102620007C38000803480168034A12788918016061
:10263000704700BFC04300200C00002010F00700CE
:10264000334B1A684FF6FF010A4052EA0022314824
:1026500002431A6070472E480068C0F3022070479A
:10266000010049B2002908D4012210F01F018A405C
:10267000294940B2400941F820207047020052B277
:10268000002A04D40901254A40B2115407E0090187
:10269000234A40B210F00F00104400F8041C7047A9
:1026A00010B410F00700D0F10703052B01D3042369
:1026B00001E0D0F10703041D072C01D2002000E047
:1026C000C01E012414FA03F35B1E1940814014FA62
:1026D00000F0401E1040084310BC704780B5FFF763
:1026E000ADFF01BD70B504000D0016000020FFF71E
:1026F000B2FF32002900FFF7D3FF0100200040B2F3
:10270000FFF7BCFF70BD80B540B2FFF7A9FF01BD68
:102710000CED00E00000FA0500E100E000E400E05C
:1027200018ED00E018B587B001000020002000225D
:102730001920FFF7D7FF1920FFF7E5FF00200090D1
:102740001548016851F001010160006810F00100B6
:102750000090009801A902A8FFF73CFFFFF72FFFA8
:1027600040000E49B0FBF1F0401E0D4C0D492160B8
:1027700040F2E731E1606060002020610020A0604D
:102780002000FFF73DF9002803D12000FFF76FF983
:1027900000E0012008B010BD4438024040420F0064
:1027A000944200200000014080B5002000900E48B7
:1027B000016851F480410160006810F4804000908D
:1027C0000098002000900948016851F08051016094
:1027D000006810F080500090009800220F217FF0D8
:1027E0000100FFF77FFF01BD44380240403802403E
:1027F00010B50400002C01D101205FE0606A0028C0
:1028000006D16068B0F5827F06D00020E06103E069
:1028100000202061002060610020A06294F8510037
:10282000002805D1002084F850002000FFF78FFC1D
:10283000022084F851002068006830F040002168D0
:102840000860606810F48270A16811F404410843C4
:10285000E16811F400610843217C11F00201084392
:10286000217D11F001010843A16911F400710843B1
:10287000217F11F03801084394F8201011F08001F5
:102880000843A16A11F40051084321680860A06957
:10289000000C10F0040094F8241011F0100108430B
:1028A000216848602068C06930F400602168C86110
:1028B00000206065012084F85100002010BD000058
:1028C00038B504000025002C01D1012028E0A06AC1
:1028D000DFF828138842206C002807D12000FFF77A
:1028E000AFFC00206064002084F83C00206CC0062F
:1028F00010D4206C30F4885050F002002064200086
:1029000000F0CDF8002060640120216C60F301012B
:10291000216400E00125002084F83C002800C0B2BA
:1029200032BD38B402000020009092F83C0001282B
:1029300001D10220B1E0012082F83C0008680A2899
:1029400018D31068C368072408680A38032510FBE9
:1029500005F08440A3431068C3601068C3688C68A6
:1029600008680A38032510FB05F0844023431068EB
:10297000C36013E01068036907240D680320454312
:10298000AC40A34310680361106803698C680D684C
:1029900003204543AC40234310680361486807287F
:1029A00018D21068436B1F244868401E052510FB91
:1029B00005F08440A343106843631068436B0C88A0
:1029C0004868401E052510FB05F08440234310682D
:1029D000436333E048680D2818D21068036B1F2446
:1029E0004868C01F052510FB05F08440A34310680C
:1029F00003631068036B0C884868C01F052510FB33
:102A000005F0844023431068036317E01068C36A2D
:102A10001F2448680D38052510FB05F08440A343AA
:102A20001068C3621068C36A0C8848680D380525B1
:102A300010FB05F0844023431068C3627248734B57
:102A400014689C4206D10C68122C03D1446854F4DB
:102A50008004446014689C421BD10B68102B02D088
:102A60000B68112B15D1436853F4000343600868C9
:102A700010280ED1624800686249B0FBF1F10A20CB
:102A80004143009102E00098401E00900098002809
:102A9000F9D1002082F83C00002032BC70475A4A2D
:102AA000516831F440315160536841680B435360C1
:102AB0000168496831F480710268516001684968B1
:102AC000026951EA0221026851600168496831F0E7
:102AD00040710268516001684A6881680A43016870
:102AE0004A600168896831F4006102689160016898
:102AF0008A68C1680A4301688A60816A3F4A9142D4
:102B000018D00168896831F07061026891600168CD
:102B10008A68816A0A4301688A600168896831F0BD
:102B200040510268916001688A68C16A0A4301687D
:102B30008A600BE00168896831F070610268916019
:102B40000168896831F040510268916001688968C4
:102B500031F002010268916001688968027E51EAE1
:102B600042010268916090F82010002914D0016899
:102B7000496851F40061026851600168496831F4A4
:102B800060410268516001684968426A521E51EA18
:102B900042310268516005E00168496831F4006122
:102BA000026851600168C96A31F470010268D1623B
:102BB0000168C96AC269521E51EA02510268D162B3
:102BC0000168896831F40071026891600168896860
:102BD00090F8302051EA42210268916001688968CA
:102BE00031F480610268916001688968426951EA44
:102BF0008221006881607047000000000100000F22
:102C00000800002040420F00002301400020014046
:102C100038B58AB00400002C01D1012031E02568CC
:102C200094F8F902002805D1002084F8F802200069
:102C3000FFF756FB032084F8F902E86BC00501D4C6
:102C400000202061206800F089FA211D83B06846C9
:102C50003422FEF73FFA0EBC206800F03FFA012153
:102C6000206800F081FA211D83B068463422FEF707
:102C700031FA0EBC206800F025FB012084F8F9022F
:102C800000200BB030BD000010B50400002C01D1B5
:102C9000012033E0A0690028FFD194F83D0000280E
:102CA00005D1002084F83C002000FFF795FB24208C
:102CB00084F83D002068C06830F400502168C86086
:102CC000200000F01CF82068006930F49040216872
:102CD00008612068406930F02A0021684861206856
:102CE000C06850F400502168C86000202064202093
:102CF00084F83D00202084F83E00002010BD2DE91E
:102D0000FE4F05002868016931F44051E86801432D
:102D100028680161A9682869014368690143E86975
:102D200001432868C268B048024011432868C16066
:102D30002868416931F44071A869014328684161FC
:102D40002868AA49884203D02868A949884203D143
:102D5000FFF735FC040002E0FFF726FC0400E869F9
:102D6000B0F5004F40F09F807FF0630A02260027F5
:102D70005FF019085FF0000922000023A8FB0201A0
:102D800008FB031109FB0211CDE90001686800216D
:102D9000A6FB002306FB013307FB0033DDE900013E
:102DA00000F01EFB6421B0FBF1F002902200002332
:102DB000A8FB020108FB031109FB0211CDE9000188
:102DC00068680021A6FB002306FB013307FB0033E4
:102DD000DDE9000100F004FB834622000023A8FB8C
:102DE000020108FB031109FB0211CDE9000168682B
:102DF0000021A6FB002306FB013307FB0033DDE9BE
:102E0000000100F0EDFA6421B0FBF1F00AFB00B024
:102E1000C00032306421B0FBF1F0400010F4F870D3
:102E2000029910EB0110029022000023A8FB02017E
:102E300008FB031109FB0211CDE9000168680021BC
:102E4000A6FB002306FB013307FB0033DDE900018D
:102E500000F0C6FA83462000002102000B00A8FB08
:102E6000020108FB031109FB02116A680023904666
:102E70009946A6FB082306FB093307FB083300F03D
:102E8000AFFA6421B0FBF1F00AFB00BA5FEACA00B6
:102E900032306421B0FBF1F111F0070102980918FA
:102EA000286881609CE0042600277FF0630A5FF0B9
:102EB00019085FF0000922000023A8FB020108FBAB
:102EC000031109FB0211CDE9000168680021A6FB8E
:102ED000002306FB013307FB0033DDE9000100F0AE
:102EE0007FFA6421B0FBF1F0029022000023A8FBDE
:102EF000020108FB031109FB0211CDE9000168681A
:102F00000021A6FB002306FB013307FB0033DDE9AC
:102F1000000100F065FA834622000023A8FB0201AD
:102F200008FB031109FB0211CDE9000168680021CB
:102F3000A6FB002306FB013307FB0033DDE900019C
:102F400000F04EFA6421B0FBF1F00AFB00B0000182
:102F500032306421B0FBF1F010F0F000029910EB78
:102F60000110029022000023A8FB020108FB0311BC
:102F700009FB0211CDE9000168680021A6FB0023CE
:102F800006FB013307FB0033DDE9000100F028FAFE
:102F900083462000002102000B00A8FB020108FB71
:102FA000031109FB02116A68002390469946A6FBAB
:102FB000082306FB093307FB083300F011FA6421EC
:102FC000B0FBF1F00AFB00BA5FEA0A10323064216C
:102FD000B0FBF1F111F00F01029809182868816027
:102FE000BDE8F78F00000000F369FFFF001001400B
:102FF0000014014062F30F2262F31F42401810F0E8
:10300000030308D0C91A1FD3DB0748BF00F8012DFE
:1030100028BF20F8022D130030B41446154610398D
:1030200028BF20E93C00FAD8490728BF20E90C0056
:1030300048BF40F8042D890028BF20F8022D48BF62
:1030400000F8012D30BC7047C91818BF00F8012DD9
:10305000CB0728BF00F8012D7047000010B50020F5
:103060000020002000201948006810F00C00002803
:1030700004D0042804D0082804D025E0144824E013
:10308000144822E0144C226812F03F0220684002EB
:1030900009D52068C0F388100E49A1FB0001002368
:1030A00000F09EF908E02068C0F388100849A1FBF1
:1030B0000001002300F094F92168C1F30141491C8B
:1030C0004900B0FBF1F000E0014810BD08380240B3
:1030D0000024F40000127A00043802400EB418B53F
:1030E00004000898012817D1A06B30F48030A06349
:1030F000E168DFF874010140E160E06830F44010FD
:10310000E0600F98012803D1E06850F48010E0607F
:10311000200000F0B1F812E0E06850F04000E060FC
:10312000200000F0A9F80C99002904D1A16B51F4FA
:103130008031A16303E0A16B31F48031A163069972
:10314000012907D1A16851F00601A160A16851F0E1
:103150002001A160C0B212BC5DF810FB8168490873
:10316000490081600020704738B504000025E06800
:1031700030F0C040E0600800C0B2012812D1E06821
:1031800050F00050E060012000F042FA6D1C200079
:1031900000F06EF8012801D0322DF4D3322D16D173
:1031A000012015E0C9B200290FD1E06850F080403D
:1031B000E060012000F02CFA6D1C200000F058F8AF
:1031C0000028EBD0322DF4D3E8E7012000E0002006
:1031D00032BD81B000220092009A521C0092DFF8AA
:1031E0008C20009B934203D20369002BF4D501E0AD
:1031F000032012E000230093890151F020010161B6
:103200000099491C00910099914203D201698906F5
:10321000F6D401E0032000E0002001B0704781B047
:10322000002100910099491C0091DFF84010009A9C
:103230008A4203D20269002AF4D501E0032010E09B
:103240000022009210220261009A521C0092009A01
:103250008A4203D20269D206F6D401E0032000E0DC
:10326000002001B070470000BFFFBDFF410D03000B
:10327000406910F00100704781B000210091009971
:10328000491C0091DFF84011009A8A4203D202697A
:10329000002AF4D501E0032012E000220092026926
:1032A00052F001020261009A521C0092009A8A4276
:1032B00003D20269D207F6D401E0032000E0002027
:1032C00001B070470EB478B5040000252600002038
:1032D00016F560610860A06B50F40010A063A06B4D
:1032E00030F40020A063A06B30F48020A063E06B7A
:1032F000C00514D50798012808D116F5806000682C
:1033000050F0040016F58061086010E016F580604A
:10331000006830F0040016F58061086007E016F5DB
:103320008060006830F0040016F5806108601021AC
:103330002000FFF74EFF002800D001252000FFF7F6
:103340006EFF002800D0012500200DE016EB401193
:1033500011F5A0615FF0FF328A6016EB401111F5A4
:10336000A0610022CA60401C06998842EED300206A
:10337000A0615FF0FF306061E06BC0050AD54FF4DB
:1033800000706062DFF84400A062DFF84400C4F817
:10339000000108E080206062DFF83800A062DFF8FA
:1033A0003800C4F800010898002803D1A06950F043
:1033B0001000A061A169DFF824000143A161280089
:1033C000C0B272BC5DF810FB410D030000020001A9
:1033D0000003E00080006000E0004000080020A33F
:1033E000BBBBE1B1B2F5803F80F07E80022A1ED9DE
:1033F0008C46B1FBF2F102FB11C31B0443EA1043FC
:10340000B3FBF2FC02FB1C3380B240EA0343B3FB84
:10341000F2F002FB103240EA0C4000237047022A0F
:1034200005D98446B0FBF2F002FB10C270474AB1E6
:1034300005D100F0010249085FEA30007047002220
:103440000023704700F0F8B80B00020000210020B4
:103450007047904271EB030CF6D3B3F5803F2FD247
:10346000F0B5B3FA83F7B1FA81F4A7F10F0E3D1B63
:103470005340CEF1200602FA0EF2F3415340B5F16B
:103480000F0746D80F3C2C444140C4F12006A04011
:10349000F1414140B1FBF3F603FB1611A2FB0645D7
:1034A000001BA94102D2761E8018594180EA010210
:1034B00021FA0EF362FA0EF200215A403046F0BDB6
:1034C00030B4B1FBF3FC03FB1C11A2FB0C45001B49
:1034D000A94103D2ACF1010C8018594130BC02461D
:1034E0000B46604600217047B2F1807F65D3F0B58E
:1034F000B2FA82F7B1FA81F4C7F10F063D1B22FA46
:1035000006F307F1110EF24120355A40B5F10F07CD
:10351000B8D94140C4F12006A040F1414140B1FB7F
:10352000F3FC03FB1C11A2FB0C45001BA94103D2B9
:10353000BCF1010C801859410F2F12D30F3FC90362
:1035400041EA5041B1FBF3F603FB1611A2FB06451D
:10355000D4EBC030A94102D2761E8018594146EA08
:10356000CC3C07B34140C7F12006B840F14141408F
:10357000B1FBF3F603FB1611A2FB0645001BA941A4
:1035800002D2761E8018594180EA010221FA0EF318
:10359000C7F1200462FA0EF20CFA07F05A402CFA36
:1035A00004F13043F0BD80EA010221FA0EF300215C
:1035B00062FA0EF260465A40F0BD8C46B1FBF2F161
:1035C00002FB11C31B0243EA1063B3FBF2FC02FBD4
:1035D0001C331B024CEA002043EA1063B3FBF2FCED
:1035E00002FB1C331B024CEA002043EA1063B3FBCE
:1035F000F2FC02FB1C331B024CEA002043EA10637E
:10360000B3FBF2FC02FB1C324CEA002000237047A3
:1036100038B50400FEF7EEF9050014F1010F02D0F1
:10362000044800782418FEF7E5F9401BA042FAD3BD
:1036300031BD00BF0C000020704730B4002512E0FF
:1036400050F8042BD30744BF4A44521E091F0429D3
:1036500042F8045BFAD213468C0744BF15809B1CCA
:10366000C90748BF1D7050F8041B0029E8D130BCC1
:103670007047000010B5074979441831064C7C4466
:10368000163404E00A68081D114488470146A14227
:10369000F8D110BD2C0000004C0000004EF68851FF
:1036A000CEF20001086840F470000860BFF34F8F4D
:1036B000BFF36F8F4FF00170E1EE100A704700000A
:1036C0007BFFFFFFF443000010000020000000001B
:1036D0008BDAFFFF100000005801000000000020FE
:1036E0000000000000F00DF8002801D0FFF7C2FF35
:1036F000AFF300800020AFF30080FEF745FB00F041
:1037000002F80120704700F001B800000746384673
:1037100000F002F8FBE7000080B5AFF30080024A3A
:1037200011001820ABBEFBE726000200403800085D
:103730000B0F0008000000000000000080000000E7
:1037400000000000000000004C380008150F0008C1
:1037500000000000000000008000000000000000E9
:1037600000000000583800083B0F0008000000006F
:1037700000000000800000000000000000000000C9
:10378000643800087F0F00080000000000000000FF
:1037900080000000000000000000000070380008F9
:1037A000930F0008000000000000000080000000EF
:1037B0000000000000000000FEE7FEE7FEE7FEE775
:1037C000FEE7704780B50248FEF7AAF901BD000088
:1037D000944200200548014603B4684680F30988F6
:1037E000AFF30080FFF75AFFFFF77CFFA5EDF5FE72
:1037F00004000000020000000000000000000000C3
:103800000000000000000000010203040607080990
:10381000014880470148004721380008D537000893
:103820000248016851F470010160704788ED00E0C2
:10383000AAAAAAAA100000000024F40001000000B7
:1038400064656661756C745461736B0049525F53B3
:10385000454E534F525F31004C45445F546F67678C
:103860006C6531004C45445F546F67676C6532008E
:103870004C45445F546F67676C653300000000007F
:103880000102030449444C45000000000800000008
:10389000FFF7FEBFFFF7FEBFFFF7FEBFFFF7FEBF5C
:1038A000FFF7FEBFFFF7FEBFFFF7FEBFFFF7FEBF4C
:1038B000FFF7FEBFFFF7FEBFFFF7FEBFFFF7FEBF3C
:1038C000FFF7FEBFFFF7FEBFFFF7FEBFFFF7FEBF2C
:1038D000FFF7FEBFFFF7FEBFFFF7FEBFFFF7FEBF1C
:1038E000FFF7FEBFFFF7FEBFFFF7FEBFFFF7FEBF0C
:1038F000FFF7FEBFFFF7FEBFFFF7FEBFFFF7FEBFFC
:10390000FFF7FEBFFFF7FEBFFFF7FEBFFFF7FEBFEB
:10391000FFF7FEBFFFF7FEBFFFF7FEBFFFF7FEBFDB
:10392000FFF7FEBFFFF7FEBFFFF7FEBFFFF7FEBFCB
:10393000FFF7FEBFFFF7FEBFFFF7FEBFFFF7FEBFBB
:10394000FFF7FEBFFFF7FEBFFFF7FEBFFFF7FEBFAB
:10395000FFF7FEBFFFF7FEBFFFF7FEBFFFF7FEBF9B
:10396000FFF7FEBFFFF7FEBFFFF7FEBFFFF7FEBF8B
:10397000FFF7FEBFFFF7FEBFFFF7FEBFFFF7FEBF7B
:10398000FFF7FEBFFFF7FEBFFFF7FEBFFFF7FEBF6B
:10399000FFF7FEBFFFF7FEBFFFF7FEBFFFF7FEBF5B
:1039A000FFF7FEBFFFF7FEBFFFF7FEBFFFF7FEBF4B
:1039B000FFF7FEBFFFF7FEBFFFF7FEBFFFF7FEBF3B
:1039C000FFF7FEBFFFF7FEBFFFF7FEBFFFF7FEBF2B
:04000005080037D5E3
:00000001FF
